:200000000C9462000C948A000C948A000C948A000C948A000C948A000C948A000C948A00B8
:200020000C948A000C948A000C948A000C948A000C948A000C948A000C948A000C948A0070
:200040000C94F1000C948A000C9461020C94B3020C948A000C948A000C948A000C948A00E5
:200060000C948A000C948A0000000000240027002A0000000000250028002B00000000003F
:20008000230026002900040404040404040402020202020203030303030301020408102071
:2000A0004080010204081020010204081020000000070002010000030406000000000000EB
:2000C0000000220411241FBECFEFD4E0DEBFCDBF11E0A0E0B1E0E8EAFAE002C005900D92A9
:2000E000A632B107D9F711E0A6E2B1E001C01D92AB3DB107E1F710E0C4ECD0E004C02297E1
:20010000FE010E944E05C23CD107C9F70E9479040C9452050C9400001F931AC089EB91E02E
:200120000E94A903182F65E070E080E090E00E943901113411F0113629F489EB91E060E01A
:2001400071E004C089EB91E06AE071E00E94F00489EB91E00E947503892B01F71F9108957C
:2001600089EB91E040E855E260E070E00E94EE0282E090E008C061E00E94CD018091260196
:2001800090912701019690932701809326018091260190912701843191056CF382E090E0FD
:2001A0000EC061E00E940C026AE070E080E090E00E943901809126019091270101969093FF
:2001C0002701809326018091260190912701843191053CF389EB91E060E171E00E94F004B5
:2001E00008951F920F920FB60F9211242F933F938F939F93AF93BF9380912C0190912D016C
:20020000A0912E01B0912F01309130010196A11DB11D232F2D5F2D3720F02D570196A11DCD
:20022000B11D2093300180932C0190932D01A0932E01B0932F018091280190912901A091F0
:200240002A01B0912B010196A11DB11D8093280190932901A0932A01B0932B01BF91AF91FD
:200260009F918F913F912F910F900FBE0F901F9018959B01AC017FB7F894809128019091D1
:200280002901A0912A01B0912B0166B5A89B05C06F3F19F00196A11DB11D7FBFBA2FA92F6F
:2002A000982F8827860F911DA11DB11D62E0880F991FAA1FBB1F6A95D1F7BC012DC0FFB79E
:2002C000F8948091280190912901A0912A01B0912B01E6B5A89B05C0EF3F19F00196A11D15
:2002E000B11DFFBFBA2FA92F982F88278E0F911DA11DB11DE2E0880F991FAA1FBB1FEA9531
:20030000D1F7861B970B885E9340C8F2215030404040504068517C4F2115310541055105E2
:2003200071F60895789484B5826084BD84B5816084BD85B5826085BD85B5816085BDEEE667
:20034000F0E0808181608083E1E8F0E01082808182608083808181608083E0E8F0E0808159
:2003600081608083E1EBF0E0808184608083E0EBF0E0808181608083EAE7F0E0808184600F
:2003800080838081826080838081816080838081806880831092C1000895CF93DF93482F58
:2003A00050E0CA0186569F4FFC0134914A575F4FFA018491882369F190E0880F991FFC0196
:2003C000E859FF4FA591B491FC01EE58FF4FC591D491662351F42FB7F8948C91932F909583
:2003E00089238C93888189230BC0623061F42FB7F8948C91932F909589238C938881832BD3
:2004000088832FBF06C09FB7F8948C91832B8C939FBFDF91CF910895482F50E0CA0182553D
:200420009F4FFC012491CA0186569F4FFC0194914A575F4FFA013491332309F440C02223BE
:2004400051F1233071F0243028F42130A1F0223011F514C02630B1F02730C1F02430D9F408
:2004600004C0809180008F7703C0809180008F7D8093800010C084B58F7702C084B58F7D18
:2004800084BD09C08091B0008F7703C08091B0008F7D8093B000E32FF0E0EE0FFF1FEE58F5
:2004A000FF4FA591B4912FB7F894662321F48C919095892302C08C91892B8C932FBF089538
:2004C00008951F920F920FB60F9211242F933F934F938F939F93EF93FF938091C00082FD64
:2004E0001DC04091C60020917101309172012F5F3F4F2F7330708091730190917401281779
:20050000390771F0E0917101F0917201EF5CFE4F4083309372012093710102C08091C60014
:20052000FF91EF919F918F914F913F912F910F900FBE0F901F901895E091C501F091C60105
:20054000E05CFF4F8191919120813181805C9F4F821B930B60E470E00E940305892B11F092
:200560000E94600208951F920F920FB60F9211242F933F938F939F93EF93FF932091B5018A
:200580003091B6018091B7019091B8012817390731F48091C1008F7D8093C10014C0E091A5
:2005A000B701F091B801EB58FE4F20818091B7019091B80101968F7390709093B8018093ED
:2005C000B7012093C600FF91EF919F918F913F912F910F900FBE0F901F901895AF92BF9201
:2005E000DF92EF92FF920F931F93CF93DF93EC017A018B01DD24403081EE580780E068074E
:2006000080E0780711F0DD24D39491E0A92EB12CEC89FD89DD2069F0C50108A002C0880F55
:20062000991F0A94E2F7808360E079E08DE390E005C0108260E874E88EE190E0A8019701F4
:200640000E9416052150304040405040569547953795279580E12030380720F0DD2011F09F
:20066000DD24D6CFE889F9893083EA89FB89208319A2EE89FF89408121E030E0C9010C8CA6
:2006800002C0880F991F0A94E2F7482B4083EE89FF894081C9010D8C02C0880F991F0A94CA
:2006A000E2F7482B4083EE89FF894081C9010E8C02C0880F991F0A94E2F7482B4083EE89D2
:2006C000FF8980810F8C02C0220F331F0A94E2F7209528232083DF91CF911F910F91FF90E8
:2006E000EF90DF90BF90AF900895DC011C96ED91FC911D97E05CFF4F819191912081318182
:20070000805C9F4F821B930B60E470E00E9403050895DC011C96ED91FC911D97E05CFF4F21
:2007200020813181E054F040DF01AE5BBF4F8D919C9111972817390719F42FEF3FEF07C079
:200740008D919C91E80FF91F8081282F30E0C9010895DC011C96ED91FC911D97E05CFF4F98
:2007600020813181E054F040DF01AE5BBF4F8D919C9111972817390719F42FEF3FEF10C030
:200780008D919C911197E80FF91F20818D919C91119701968F73907011969C938E9330E023
:2007A000C9010895DC0191968C919197882339F05496ED91FC915597808186FFF9CF91965F
:2007C0001C920895CF93DF93EC01EE85FF85E05CFF4F20813181E054F0402F5F3F4F2F7317
:2007E0003070DF01AE5BBF4F8D919C91119728173907D1F3E05CFF4F80819181E054F0402B
:20080000E80FF91F6083EE85FF85E05CFF4F31832083EE89FF89208181E090E00F8C02C040
:20082000880F991F0A94E2F7282B208381E089A3EC89FD8980818064808381E090E0DF914B
:20084000CF9108951092BC011092BB0188EE93E0A0E0B0E08093BD019093BE01A093BF013F
:20086000B093C0018AE191E09093BA018093B90181E391E09093C6018093C50185E791E078
:200880009093C8018093C70185EC90E09093CA018093C90184EC90E09093CC018093CB0136
:2008A00080EC90E09093CE018093CD0181EC90E09093D0018093CF0182EC90E09093D20101
:2008C0008093D10186EC90E09093D4018093D30184E08093D50183E08093D60187E080935E
:2008E000D70185E08093D80181E08093D90108950895CF93DF930E9492010E9478040E947E
:20090000B000CCE9D2E00E948C002097E1F30E949C02F9CFCF92DF92EF92FF920F931F93C7
:20092000CF93DF937C016B018A01C0E0D0E00FC0D6016D916D01D701ED91FC910190F08128
:20094000E02DC7010995C80FD91F015010400115110571F7CE01DF91CF911F910F91FF90A2
:20096000EF90DF90CF900895EF92FF920F931F938C01DC01ED91FC910190F081E02D6DE056
:2009800009957C01D801ED91FC910190F081E02DC8016AE009959C012E0D3F1DC9011F91EA
:2009A0000F91FF90EF900895CF93DF93EC016115710519F420E030E00FC0DB010D900020BA
:2009C000E9F71197A61BB70BE881F9810280F381E02DAD0109959C01C901DF91CF91089506
:2009E000EF92FF920F931F937C010E94D4048C01C7010E94B404080F191FC8011F910F9183
:200A0000FF90EF90089597FB092E07260AD077FD04D02ED006D000201AF4709561957F4F48
:200A20000895F6F7909581959F4F0895A1E21A2EAA1BBB1BFD010DC0AA1FBB1FEE1FFF1F67
:200A4000A217B307E407F50720F0A21BB30BE40BF50B661F771F881F991F1A9469F7609545
:200A60007095809590959B01AC01BD01CF010895AA1BBB1B51E107C0AA1FBB1FA617B70711
:200A800010F0A61BB70B881F991F5A95A9F780959095BC01CD010895EE0FFF1F0590F4914E
:200AA000E02D0994F894FFCF746573742070617373004661696C2100526561647900000009
:200AC0000000E2038A047503A9038903D203FFFFFFFFFFFFFFFFFFFFFFFFFFFFFFFFFFFF30
:200AE000FFFFFFFFFFFFFFFFFFFFFFFFFFFFFFFFFFFFFFFFFFFFFFFFFFFFFFFFFFFFFFFF16
:200B0000FFFFFFFFFFFFFFFFFFFFFFFFFFFFFFFFFFFFFFFFFFFFFFFFFFFFFFFFFFFFFFFFF5
:200B2000FFFFFFFFFFFFFFFFFFFFFFFFFFFFFFFFFFFFFFFFFFFFFFFFFFFFFFFFFFFFFFFFD5
:200B4000FFFFFFFFFFFFFFFFFFFFFFFFFFFFFFFFFFFFFFFFFFFFFFFFFFFFFFFFFFFFFFFFB5
:203800000C94341C0C94511C0C94511C0C94511C0C94511C0C94511C0C94511C0C94511C5D
:203820000C94511C0C94511C0C94511C0C94511C0C94511C0C94511C0C94511C0C94511C20
:203840000C94511C0C94511C0C94511C0C94511C0C94511C0C94511C0C94511C0C94511C00
:203860000C94511C0C94511C11241FBECFEFD4E0DEBFCDBF11E0A0E0B1E0E4EAFFE302C00D
:2038800005900D92A230B107D9F712E0A2E0B1E001C01D92AD30B107E1F70E94361D0C9423
:2038A000D01F0C94001C982F9595959595959595905D8F708A307CF0282F295A8091C00031
:2038C00085FFFCCF9093C6008091C00085FFFCCF2093C6000895282F205DF0CF982F80910F
:2038E000C00085FFFCCF9093C6000895EF92FF920F931F93EE24FF2487018091C00087FDBB
:2039000017C00894E11CF11C011D111D81E4E81682E4F8068FE0080780E0180770F3E09146
:203920000401F091050109958091C00087FFE9CF8091C6001F910F91FF90EF9008950E94DA
:20394000761C982F8091C00085FFFCCF9093C60091362CF490330CF09053892F089597553B
:20396000892F08951F930E949F1C182F0E949F1C1295107F810F1F910895882351F0982F79
:2039800091508091C00087FFFCCF8091C6009923B9F708951F93182F0E94761C803249F02C
:2039A000809103018F5F809303018530C1F01F9108958091C00085FFFCCF84E18093C600DC
:2039C0008091C00085FFFCCF1093C6008091C00085FFFCCF80E18093C6001F910895E09146
:2039E0000401F091050109951F9108950E94761C803241F0809103018F5F8093030185306A
:203A000081F008958091C00085FFFCCF84E18093C6008091C00085FFFCCF80E18093C600E0
:203A20000895E0910401F09105010995089510920A028823D1F090E040E951E02D9A28EEF0
:203A400033E0FA013197F1F721503040D1F72D9828EE33E0FA013197F1F721503040D1F7BD
:203A60009F5F981758F380930A0208953F924F925F926F927F928F929F92AF92BF92CF9298
:203A8000DF92EF92FF920F931F93CF93DF93000083E38093C4001092C50088E18093C1009A
:203AA00086E08093C2005098589A259A81E00E94171D44E1F42E3EE1E32E24E9D22E96E001
:203AC000C92E80E1B82EAA24A39401E4902E16E5812EB2E57B2EA0E26A2EF9E45F2EE3E5CA
:203AE0004E2E70E5372E0E94761C8033B1F1813309F441C0803409F479C0813409F48CC06D
:203B0000823471F1853409F47BC0803531F1823521F1813511F1853509F48DC0863509F488
:203B20009DC0843609F4AEC0843709F41BC1853709F485C1863709F47AC0809103018F5F79
:203B400080930301853079F6E0910401F091050109950E94761C803351F60E94F61CC3CF1B
:203B600093E18091C00087FFFCCF8091C6009923A1F39150F6CF0E94761C8032F1F6809104
:203B8000C00085FFFCCFF092C6008091C00085FFFCCF9092C6008091C00085FFFCCF809294
:203BA000C6008091C00085FFFCCF7092C6008091C00085FFFCCF6092C6008091C00085FF2A
:203BC000FCCF5092C6008091C00085FFFCCF4092C6008091C00085FFFCCF3092C600809101
:203BE000C00085FFFCCFB092C6007DCF0E94761C863808F4B2CF0E94761C0E94F61C73CFC9
:203C000094E08091C00087FFFCCF8091C600992309F4A3CF9150F5CF0E94761C8038D1F0BA
:203C2000813861F1823809F499C0883979F080E00E94CA1C58CF0E94761C809306010E9440
:203C4000761C809307010E94F61C4DCF83E00E94CA1C49CF82E00E94CA1C45CF0E94761CB2
:203C6000803309F486C192E08091C00087FFFCCF8091C6009923D9F29150F6CF81E00E94B2
:203C8000CA1C31CF0E94761C809309020E94761C8093080280910C028E7F80930C020E94AC
:203CA000761C853429F480910C02816080930C028091080290910902892B89F000E010E037
:203CC0000E94761CF801E85FFE4F80830F5F1F4F80910802909109020817190788F30E94A1
:203CE000761C803209F029CF80910C0280FFD1C04091060150910701440F551F50930701ED
:203D000040930601A0910802B09109021097C9F0E8E0F1E09A01BD016E0F7F1FF999FECF76
:203D200032BD21BD819180BDFA9AF99A2F5F3F4FE617F70799F74A0F5B1F50930701409308
:203D400006018091C00085FFFCCFF092C6008091C00085FFFCCFB092C600C5CE80E10E9436
:203D6000CA1CC1CE0E94761C809309020E94761C809308028091060190910701880F991F9B
:203D800090930701809306010E94761C853409F47AC080910C028E7F80930C020E94761C39
:203DA000803209F0A0CE8091C00085FFFCCFF092C600A0910802B09109021097B9F1809199
:203DC0000C02182F1170082F0270E0910601F09107019F012F5F3F4FB90140E050E0112369
:203DE000B1F4002339F494918091C00085FFFCCF9093C6004F5F5F4FCB010196F9014A1786
:203E00005B0780F4BC012F5F3F4F112351F3F999FECFF2BDE1BDF89A90B58091C00085FFA3
:203E2000FCCFE6CF70930701609306018091C00085FDD9CE8091C00085FFF8CFD4CE0E94A3
:203E4000761C803209F079CE8091C00085FFFCCFF092C6008091C00085FFFCCFE092C6001E
:203E60008091C00085FFFCCFD092C6008091C00085FFFCCFC092C6008091C00085FFFCCFA2
:203E8000B092C60030CE80910C02816080930C0285CF809107018823880F880B8A218093FB
:203EA0000B028091060190910701880F991F90930701809306018091080280FF09C08091AC
:203EC00008029091090201969093090280930802F894F999FECF1127E0910601F0910701A6
:203EE000C8E0D1E08091080290910902103091F40091570001700130D9F303E0009357003A
:203F0000E8950091570001700130D9F301E100935700E895099019900091570001700130B9
:203F2000D9F301E000935700E8951395103498F011270091570001700130D9F305E00093F3
:203F40005700E8950091570001700130D9F301E100935700E8953296029709F0C7CF1030BE
:203F600011F00296E5CF11248091C00085FFE9CEECCE0E94761C0E94761C182F0E94761C16
:203F8000112351F0113021F086E00E94CA1CABCD84E90E94CA1CA7CD8EE10E94CA1CA3CD24
:203FA000F894FFCF8000FFFFFFFFFFFFFFFFFFFFFFFFFFFFFFFFFFFFFFFFFFFFFFFFFFFF41
:203FC000FFFFFFFFFFFFFFFFFFFFFFFFFFFFFFFFFFFFFFFFFFFFFFFFFFFFFFFFFFFFFFFF01
:203FE000FFFFFFFFFFFFFFFFFFFFFFFFFFFFFFFFFFFFFFFFFFFFFFFFFFFFFFFFFFFFFFFFE1
:00000001FF
